{
  "_format": "hh-sol-artifact-1",
  "contractName": "SnakeNFT",
  "sourceName": "contracts/SnakeNFT.sol",
  "abi": [
    {
      "inputs": [
        {
          "internalType": "string",
          "name": "baseUri",
          "type": "string"
        },
        {
          "internalType": "uint256[4]",
          "name": "_prices",
          "type": "uint256[4]"
        }
      ],
      "stateMutability": "nonpayable",
      "type": "constructor"
    },
    {
      "inputs": [
        {
          "internalType": "address",
          "name": "sender",
          "type": "address"
        },
        {
          "internalType": "uint256",
          "name": "balance",
          "type": "uint256"
        },
        {
          "internalType": "uint256",
          "name": "needed",
          "type": "uint256"
        },
        {
          "internalType": "uint256",
          "name": "tokenId",
          "type": "uint256"
        }
      ],
      "name": "ERC1155InsufficientBalance",
      "type": "error"
    },
    {
      "inputs": [
        {
          "internalType": "address",
          "name": "approver",
          "type": "address"
        }
      ],
      "name": "ERC1155InvalidApprover",
      "type": "error"
    },
    {
      "inputs": [
        {
          "internalType": "uint256",
          "name": "idsLength",
          "type": "uint256"
        },
        {
          "internalType": "uint256",
          "name": "valuesLength",
          "type": "uint256"
        }
      ],
      "name": "ERC1155InvalidArrayLength",
      "type": "error"
    },
    {
      "inputs": [
        {
          "internalType": "address",
          "name": "operator",
          "type": "address"
        }
      ],
      "name": "ERC1155InvalidOperator",
      "type": "error"
    },
    {
      "inputs": [
        {
          "internalType": "address",
          "name": "receiver",
          "type": "address"
        }
      ],
      "name": "ERC1155InvalidReceiver",
      "type": "error"
    },
    {
      "inputs": [
        {
          "internalType": "address",
          "name": "sender",
          "type": "address"
        }
      ],
      "name": "ERC1155InvalidSender",
      "type": "error"
    },
    {
      "inputs": [
        {
          "internalType": "address",
          "name": "operator",
          "type": "address"
        },
        {
          "internalType": "address",
          "name": "owner",
          "type": "address"
        }
      ],
      "name": "ERC1155MissingApprovalForAll",
      "type": "error"
    },
    {
      "inputs": [
        {
          "internalType": "address",
          "name": "owner",
          "type": "address"
        }
      ],
      "name": "OwnableInvalidOwner",
      "type": "error"
    },
    {
      "inputs": [
        {
          "internalType": "address",
          "name": "account",
          "type": "address"
        }
      ],
      "name": "OwnableUnauthorizedAccount",
      "type": "error"
    },
    {
      "anonymous": false,
      "inputs": [
        {
          "indexed": true,
          "internalType": "address",
          "name": "account",
          "type": "address"
        },
        {
          "indexed": true,
          "internalType": "address",
          "name": "operator",
          "type": "address"
        },
        {
          "indexed": false,
          "internalType": "bool",
          "name": "approved",
          "type": "bool"
        }
      ],
      "name": "ApprovalForAll",
      "type": "event"
    },
    {
      "anonymous": false,
      "inputs": [
        {
          "indexed": true,
          "internalType": "address",
          "name": "previousOwner",
          "type": "address"
        },
        {
          "indexed": true,
          "internalType": "address",
          "name": "newOwner",
          "type": "address"
        }
      ],
      "name": "OwnershipTransferred",
      "type": "event"
    },
    {
      "anonymous": false,
      "inputs": [
        {
          "indexed": true,
          "internalType": "address",
          "name": "buyer",
          "type": "address"
        },
        {
          "indexed": true,
          "internalType": "uint256",
          "name": "id",
          "type": "uint256"
        },
        {
          "indexed": false,
          "internalType": "uint256",
          "name": "amount",
          "type": "uint256"
        },
        {
          "indexed": false,
          "internalType": "uint256",
          "name": "totalPrice",
          "type": "uint256"
        }
      ],
      "name": "SnakePurchased",
      "type": "event"
    },
    {
      "anonymous": false,
      "inputs": [
        {
          "indexed": true,
          "internalType": "address",
          "name": "operator",
          "type": "address"
        },
        {
          "indexed": true,
          "internalType": "address",
          "name": "from",
          "type": "address"
        },
        {
          "indexed": true,
          "internalType": "address",
          "name": "to",
          "type": "address"
        },
        {
          "indexed": false,
          "internalType": "uint256[]",
          "name": "ids",
          "type": "uint256[]"
        },
        {
          "indexed": false,
          "internalType": "uint256[]",
          "name": "values",
          "type": "uint256[]"
        }
      ],
      "name": "TransferBatch",
      "type": "event"
    },
    {
      "anonymous": false,
      "inputs": [
        {
          "indexed": true,
          "internalType": "address",
          "name": "operator",
          "type": "address"
        },
        {
          "indexed": true,
          "internalType": "address",
          "name": "from",
          "type": "address"
        },
        {
          "indexed": true,
          "internalType": "address",
          "name": "to",
          "type": "address"
        },
        {
          "indexed": false,
          "internalType": "uint256",
          "name": "id",
          "type": "uint256"
        },
        {
          "indexed": false,
          "internalType": "uint256",
          "name": "value",
          "type": "uint256"
        }
      ],
      "name": "TransferSingle",
      "type": "event"
    },
    {
      "anonymous": false,
      "inputs": [
        {
          "indexed": false,
          "internalType": "string",
          "name": "value",
          "type": "string"
        },
        {
          "indexed": true,
          "internalType": "uint256",
          "name": "id",
          "type": "uint256"
        }
      ],
      "name": "URI",
      "type": "event"
    },
    {
      "inputs": [],
      "name": "MAX_SNAKES",
      "outputs": [
        {
          "internalType": "uint256",
          "name": "",
          "type": "uint256"
        }
      ],
      "stateMutability": "view",
      "type": "function"
    },
    {
      "inputs": [
        {
          "internalType": "address",
          "name": "account",
          "type": "address"
        },
        {
          "internalType": "uint256",
          "name": "id",
          "type": "uint256"
        }
      ],
      "name": "balanceOf",
      "outputs": [
        {
          "internalType": "uint256",
          "name": "",
          "type": "uint256"
        }
      ],
      "stateMutability": "view",
      "type": "function"
    },
    {
      "inputs": [
        {
          "internalType": "address[]",
          "name": "accounts",
          "type": "address[]"
        },
        {
          "internalType": "uint256[]",
          "name": "ids",
          "type": "uint256[]"
        }
      ],
      "name": "balanceOfBatch",
      "outputs": [
        {
          "internalType": "uint256[]",
          "name": "",
          "type": "uint256[]"
        }
      ],
      "stateMutability": "view",
      "type": "function"
    },
    {
      "inputs": [
        {
          "internalType": "uint256",
          "name": "id",
          "type": "uint256"
        },
        {
          "internalType": "uint256",
          "name": "amount",
          "type": "uint256"
        }
      ],
      "name": "buy",
      "outputs": [],
      "stateMutability": "payable",
      "type": "function"
    },
    {
      "inputs": [
        {
          "internalType": "address",
          "name": "account",
          "type": "address"
        },
        {
          "internalType": "address",
          "name": "operator",
          "type": "address"
        }
      ],
      "name": "isApprovedForAll",
      "outputs": [
        {
          "internalType": "bool",
          "name": "",
          "type": "bool"
        }
      ],
      "stateMutability": "view",
      "type": "function"
    },
    {
      "inputs": [
        {
          "internalType": "uint256",
          "name": "",
          "type": "uint256"
        }
      ],
      "name": "maxSupply",
      "outputs": [
        {
          "internalType": "uint256",
          "name": "",
          "type": "uint256"
        }
      ],
      "stateMutability": "view",
      "type": "function"
    },
    {
      "inputs": [
        {
          "internalType": "uint256",
          "name": "",
          "type": "uint256"
        }
      ],
      "name": "minted",
      "outputs": [
        {
          "internalType": "uint256",
          "name": "",
          "type": "uint256"
        }
      ],
      "stateMutability": "view",
      "type": "function"
    },
    {
      "inputs": [
        {
          "internalType": "uint256",
          "name": "",
          "type": "uint256"
        }
      ],
      "name": "multiplier",
      "outputs": [
        {
          "internalType": "uint256",
          "name": "",
          "type": "uint256"
        }
      ],
      "stateMutability": "view",
      "type": "function"
    },
    {
      "inputs": [],
      "name": "owner",
      "outputs": [
        {
          "internalType": "address",
          "name": "",
          "type": "address"
        }
      ],
      "stateMutability": "view",
      "type": "function"
    },
    {
      "inputs": [
        {
          "internalType": "uint256",
          "name": "",
          "type": "uint256"
        }
      ],
      "name": "prices",
      "outputs": [
        {
          "internalType": "uint256",
          "name": "",
          "type": "uint256"
        }
      ],
      "stateMutability": "view",
      "type": "function"
    },
    {
      "inputs": [],
      "name": "renounceOwnership",
      "outputs": [],
      "stateMutability": "nonpayable",
      "type": "function"
    },
    {
      "inputs": [
        {
          "internalType": "address",
          "name": "from",
          "type": "address"
        },
        {
          "internalType": "address",
          "name": "to",
          "type": "address"
        },
        {
          "internalType": "uint256[]",
          "name": "ids",
          "type": "uint256[]"
        },
        {
          "internalType": "uint256[]",
          "name": "values",
          "type": "uint256[]"
        },
        {
          "internalType": "bytes",
          "name": "data",
          "type": "bytes"
        }
      ],
      "name": "safeBatchTransferFrom",
      "outputs": [],
      "stateMutability": "nonpayable",
      "type": "function"
    },
    {
      "inputs": [
        {
          "internalType": "address",
          "name": "from",
          "type": "address"
        },
        {
          "internalType": "address",
          "name": "to",
          "type": "address"
        },
        {
          "internalType": "uint256",
          "name": "id",
          "type": "uint256"
        },
        {
          "internalType": "uint256",
          "name": "value",
          "type": "uint256"
        },
        {
          "internalType": "bytes",
          "name": "data",
          "type": "bytes"
        }
      ],
      "name": "safeTransferFrom",
      "outputs": [],
      "stateMutability": "nonpayable",
      "type": "function"
    },
    {
      "inputs": [
        {
          "internalType": "address",
          "name": "operator",
          "type": "address"
        },
        {
          "internalType": "bool",
          "name": "approved",
          "type": "bool"
        }
      ],
      "name": "setApprovalForAll",
      "outputs": [],
      "stateMutability": "nonpayable",
      "type": "function"
    },
    {
      "inputs": [
        {
          "internalType": "string",
          "name": "newUri",
          "type": "string"
        }
      ],
      "name": "setBaseURI",
      "outputs": [],
      "stateMutability": "nonpayable",
      "type": "function"
    },
    {
      "inputs": [
        {
          "internalType": "uint256",
          "name": "id",
          "type": "uint256"
        },
        {
          "internalType": "uint256",
          "name": "newPrice",
          "type": "uint256"
        }
      ],
      "name": "setPrice",
      "outputs": [],
      "stateMutability": "nonpayable",
      "type": "function"
    },
    {
      "inputs": [
        {
          "internalType": "bytes4",
          "name": "interfaceId",
          "type": "bytes4"
        }
      ],
      "name": "supportsInterface",
      "outputs": [
        {
          "internalType": "bool",
          "name": "",
          "type": "bool"
        }
      ],
      "stateMutability": "view",
      "type": "function"
    },
    {
      "inputs": [
        {
          "internalType": "address",
          "name": "newOwner",
          "type": "address"
        }
      ],
      "name": "transferOwnership",
      "outputs": [],
      "stateMutability": "nonpayable",
      "type": "function"
    },
    {
      "inputs": [
        {
          "internalType": "uint256",
          "name": "",
          "type": "uint256"
        }
      ],
      "name": "uri",
      "outputs": [
        {
          "internalType": "string",
          "name": "",
          "type": "string"
        }
      ],
      "stateMutability": "view",
      "type": "function"
    },
    {
      "inputs": [
        {
          "internalType": "address payable",
          "name": "to",
          "type": "address"
        }
      ],
      "name": "withdraw",
      "outputs": [],
      "stateMutability": "nonpayable",
      "type": "function"
    }
  ],
  "bytecode": "0x60806040523480156200001157600080fd5b506040516200397838038062003978833981810160405281019062000037919062000539565b33826200004a816200016360201b60201c565b50600073ffffffffffffffffffffffffffffffffffffffff168173ffffffffffffffffffffffffffffffffffffffff1603620000c05760006040517f1e4fbdf7000000000000000000000000000000000000000000000000000000008152600401620000b79190620005e4565b60405180910390fd5b620000d1816200017860201b60201c565b5060405180608001604052806113888152602001610bb881526020016105dc81526020016101f481525060049060046200010d9291906200023e565b506040518060800160405280606481526020016096815260200160c8815260200161012c815250600c906004620001469291906200023e565b508060109060046200015a9291906200023e565b50505062000929565b806002908162000174919062000842565b5050565b6000600360009054906101000a900473ffffffffffffffffffffffffffffffffffffffff16905081600360006101000a81548173ffffffffffffffffffffffffffffffffffffffff021916908373ffffffffffffffffffffffffffffffffffffffff1602179055508173ffffffffffffffffffffffffffffffffffffffff168173ffffffffffffffffffffffffffffffffffffffff167f8be0079c531659141344cd1fd0a4f28419497f9722a3daafe3b4186f6b6457e060405160405180910390a35050565b826004810192821562000270579160200282015b828111156200026f57825182559160200191906001019062000252565b5b5090506200027f919062000283565b5090565b5b808211156200029e57600081600090555060010162000284565b5090565b6000604051905090565b600080fd5b600080fd5b600080fd5b600080fd5b6000601f19601f8301169050919050565b7f4e487b7100000000000000000000000000000000000000000000000000000000600052604160045260246000fd5b6200030b82620002c0565b810181811067ffffffffffffffff821117156200032d576200032c620002d1565b5b80604052505050565b600062000342620002a2565b905062000350828262000300565b919050565b600067ffffffffffffffff821115620003735762000372620002d1565b5b6200037e82620002c0565b9050602081019050919050565b60005b83811015620003ab5780820151818401526020810190506200038e565b60008484015250505050565b6000620003ce620003c88462000355565b62000336565b905082815260208101848484011115620003ed57620003ec620002bb565b5b620003fa8482856200038b565b509392505050565b600082601f8301126200041a5762000419620002b6565b5b81516200042c848260208601620003b7565b91505092915050565b600067ffffffffffffffff821115620004535762000452620002d1565b5b602082029050919050565b600080fd5b6000819050919050565b620004788162000463565b81146200048457600080fd5b50565b60008151905062000498816200046d565b92915050565b6000620004b5620004af8462000435565b62000336565b90508060208402830185811115620004d257620004d16200045e565b5b835b81811015620004ff5780620004ea888262000487565b845260208401935050602081019050620004d4565b5050509392505050565b600082601f830112620005215762000520620002b6565b5b6004620005308482856200049e565b91505092915050565b60008060a08385031215620005535762000552620002ac565b5b600083015167ffffffffffffffff811115620005745762000573620002b1565b5b620005828582860162000402565b9250506020620005958582860162000509565b9150509250929050565b600073ffffffffffffffffffffffffffffffffffffffff82169050919050565b6000620005cc826200059f565b9050919050565b620005de81620005bf565b82525050565b6000602082019050620005fb6000830184620005d3565b92915050565b600081519050919050565b7f4e487b7100000000000000000000000000000000000000000000000000000000600052602260045260246000fd5b600060028204905060018216806200065457607f821691505b6020821081036200066a57620006696200060c565b5b50919050565b60008190508160005260206000209050919050565b60006020601f8301049050919050565b600082821b905092915050565b600060088302620006d47fffffffffffffffffffffffffffffffffffffffffffffffffffffffffffffffff8262000695565b620006e0868362000695565b95508019841693508086168417925050509392505050565b6000819050919050565b6000620007236200071d620007178462000463565b620006f8565b62000463565b9050919050565b6000819050919050565b6200073f8362000702565b620007576200074e826200072a565b848454620006a2565b825550505050565b600090565b6200076e6200075f565b6200077b81848462000734565b505050565b5b81811015620007a3576200079760008262000764565b60018101905062000781565b5050565b601f821115620007f257620007bc8162000670565b620007c78462000685565b81016020851015620007d7578190505b620007ef620007e68562000685565b83018262000780565b50505b505050565b600082821c905092915050565b60006200081760001984600802620007f7565b1980831691505092915050565b600062000832838362000804565b9150826002028217905092915050565b6200084d8262000601565b67ffffffffffffffff811115620008695762000868620002d1565b5b6200087582546200063b565b62000882828285620007a7565b600060209050601f831160018114620008ba5760008415620008a5578287015190505b620008b1858262000824565b86555062000921565b601f198416620008ca8662000670565b60005b82811015620008f457848901518255600182019150602085019450602081019050620008cd565b8683101562000914578489015162000910601f89168262000804565b8355505b6001600288020188555050505b505050505050565b61303f80620009396000396000f3fe60806040526004361061011e5760003560e01c80637dc0bf3f116100a0578063d6febde811610064578063d6febde81461041c578063e985e9c514610438578063f242432a14610475578063f2fde38b1461049e578063f7d97577146104c75761011e565b80637dc0bf3f14610311578063869f75941461034e5780638da5cb5b1461038b578063a22cb465146103b6578063bc31c1c1146103df5761011e565b80632eb2c2d6116100e75780632eb2c2d6146102425780634e1273f41461026b57806351cff8d9146102a857806355f804b3146102d1578063715018a6146102fa5761011e565b8062fdd58e1461012357806301ffc9a71461016057806305e30f511461019d5780630e89341c146101da5780632bbe8ed314610217575b600080fd5b34801561012f57600080fd5b5061014a60048036038101906101459190611d88565b6104f0565b6040516101579190611dd7565b60405180910390f35b34801561016c57600080fd5b5061018760048036038101906101829190611e4a565b61054a565b6040516101949190611e92565b60405180910390f35b3480156101a957600080fd5b506101c460048036038101906101bf9190611ead565b61062c565b6040516101d19190611dd7565b60405180910390f35b3480156101e657600080fd5b5061020160048036038101906101fc9190611ead565b610647565b60405161020e9190611f6a565b60405180910390f35b34801561022357600080fd5b5061022c6106db565b6040516102399190611dd7565b60405180910390f35b34801561024e57600080fd5b5061026960048036038101906102649190612189565b6106e0565b005b34801561027757600080fd5b50610292600480360381019061028d919061231b565b610788565b60405161029f9190612451565b60405180910390f35b3480156102b457600080fd5b506102cf60048036038101906102ca91906124b1565b610897565b005b3480156102dd57600080fd5b506102f860048036038101906102f39190612539565b610958565b005b34801561030657600080fd5b5061030f6109b1565b005b34801561031d57600080fd5b5061033860048036038101906103339190611ead565b6109c5565b6040516103459190611dd7565b60405180910390f35b34801561035a57600080fd5b5061037560048036038101906103709190611ead565b6109e0565b6040516103829190611dd7565b60405180910390f35b34801561039757600080fd5b506103a06109fb565b6040516103ad9190612595565b60405180910390f35b3480156103c257600080fd5b506103dd60048036038101906103d891906125dc565b610a25565b005b3480156103eb57600080fd5b5061040660048036038101906104019190611ead565b610a3b565b6040516104139190611dd7565b60405180910390f35b6104366004803603810190610431919061261c565b610a56565b005b34801561044457600080fd5b5061045f600480360381019061045a919061265c565b610cb7565b60405161046c9190611e92565b60405180910390f35b34801561048157600080fd5b5061049c6004803603810190610497919061269c565b610d4b565b005b3480156104aa57600080fd5b506104c560048036038101906104c09190612733565b610df3565b005b3480156104d357600080fd5b506104ee60048036038101906104e9919061261c565b610e79565b005b600080600083815260200190815260200160002060008473ffffffffffffffffffffffffffffffffffffffff1673ffffffffffffffffffffffffffffffffffffffff16815260200190815260200160002054905092915050565b60007fd9b67a26000000000000000000000000000000000000000000000000000000007bffffffffffffffffffffffffffffffffffffffffffffffffffffffff1916827bffffffffffffffffffffffffffffffffffffffffffffffffffffffff1916148061061557507f0e89341c000000000000000000000000000000000000000000000000000000007bffffffffffffffffffffffffffffffffffffffffffffffffffffffff1916827bffffffffffffffffffffffffffffffffffffffffffffffffffffffff1916145b80610625575061062482610ee2565b5b9050919050565b600c816004811061063c57600080fd5b016000915090505481565b6060600280546106569061278f565b80601f01602080910402602001604051908101604052809291908181526020018280546106829061278f565b80156106cf5780601f106106a4576101008083540402835291602001916106cf565b820191906000526020600020905b8154815290600101906020018083116106b257829003601f168201915b50505050509050919050565b600481565b60006106ea610f4c565b90508073ffffffffffffffffffffffffffffffffffffffff168673ffffffffffffffffffffffffffffffffffffffff161415801561072f575061072d8682610cb7565b155b156107735780866040517fe237d92200000000000000000000000000000000000000000000000000000000815260040161076a9291906127c0565b60405180910390fd5b6107808686868686610f54565b505050505050565b606081518351146107d457815183516040517f5b0599910000000000000000000000000000000000000000000000000000000081526004016107cb9291906127e9565b60405180910390fd5b6000835167ffffffffffffffff8111156107f1576107f0611f91565b5b60405190808252806020026020018201604052801561081f5781602001602082028036833780820191505090505b50905060005b845181101561088c5761085c610844828761104c90919063ffffffff16565b610857838761106090919063ffffffff16565b6104f0565b82828151811061086f5761086e612812565b5b6020026020010181815250508061088590612870565b9050610825565b508091505092915050565b61089f611074565b600073ffffffffffffffffffffffffffffffffffffffff168173ffffffffffffffffffffffffffffffffffffffff160361090e576040517f08c379a000000000000000000000000000000000000000000000000000000000815260040161090590612904565b60405180910390fd5b8073ffffffffffffffffffffffffffffffffffffffff166108fc479081150290604051600060405180830381858888f19350505050158015610954573d6000803e3d6000fd5b5050565b610960611074565b6109ad82828080601f016020809104026020016040519081016040528093929190818152602001838380828437600081840152601f19601f820116905080830192505050505050506110fb565b5050565b6109b9611074565b6109c3600061110e565b565b600881600481106109d557600080fd5b016000915090505481565b600481600481106109f057600080fd5b016000915090505481565b6000600360009054906101000a900473ffffffffffffffffffffffffffffffffffffffff16905090565b610a37610a30610f4c565b83836111d4565b5050565b60108160048110610a4b57600080fd5b016000915090505481565b60048210610a99576040517f08c379a0000000000000000000000000000000000000000000000000000000008152600401610a9090612970565b60405180910390fd5b60008111610adc576040517f08c379a0000000000000000000000000000000000000000000000000000000008152600401610ad3906129dc565b60405180910390fd5b60005b82811015610b46576000610af333836104f0565b11610b33576040517f08c379a0000000000000000000000000000000000000000000000000000000008152600401610b2a90612a48565b60405180910390fd5b8080610b3e90612870565b915050610adf565b5060008160088460048110610b5e57610b5d612812565b5b0154610b6a9190612a68565b905060048360048110610b8057610b7f612812565b5b0154811115610bc4576040517f08c379a0000000000000000000000000000000000000000000000000000000008152600401610bbb90612ae8565b60405180910390fd5b60008260108560048110610bdb57610bda612812565b5b0154610be79190612b08565b9050803414610c2b576040517f08c379a0000000000000000000000000000000000000000000000000000000008152600401610c2290612b96565b60405180910390fd5b8160088560048110610c4057610c3f612812565b5b0181905550610c6033858560405180602001604052806000815250611344565b833373ffffffffffffffffffffffffffffffffffffffff167faf82d7a3898d6d68df90be563d2f119777f85ad6612babc47cd79ffa1c0c53708584604051610ca99291906127e9565b60405180910390a350505050565b6000600160008473ffffffffffffffffffffffffffffffffffffffff1673ffffffffffffffffffffffffffffffffffffffff16815260200190815260200160002060008373ffffffffffffffffffffffffffffffffffffffff1673ffffffffffffffffffffffffffffffffffffffff16815260200190815260200160002060009054906101000a900460ff16905092915050565b6000610d55610f4c565b90508073ffffffffffffffffffffffffffffffffffffffff168673ffffffffffffffffffffffffffffffffffffffff1614158015610d9a5750610d988682610cb7565b155b15610dde5780866040517fe237d922000000000000000000000000000000000000000000000000000000008152600401610dd59291906127c0565b60405180910390fd5b610deb86868686866113dd565b505050505050565b610dfb611074565b600073ffffffffffffffffffffffffffffffffffffffff168173ffffffffffffffffffffffffffffffffffffffff1603610e6d5760006040517f1e4fbdf7000000000000000000000000000000000000000000000000000000008152600401610e649190612595565b60405180910390fd5b610e768161110e565b50565b610e81611074565b60048210610ec4576040517f08c379a0000000000000000000000000000000000000000000000000000000008152600401610ebb90612970565b60405180910390fd5b8060108360048110610ed957610ed8612812565b5b01819055505050565b60007f01ffc9a7000000000000000000000000000000000000000000000000000000007bffffffffffffffffffffffffffffffffffffffffffffffffffffffff1916827bffffffffffffffffffffffffffffffffffffffffffffffffffffffff1916149050919050565b600033905090565b600073ffffffffffffffffffffffffffffffffffffffff168473ffffffffffffffffffffffffffffffffffffffff1603610fc65760006040517f57f447ce000000000000000000000000000000000000000000000000000000008152600401610fbd9190612595565b60405180910390fd5b600073ffffffffffffffffffffffffffffffffffffffff168573ffffffffffffffffffffffffffffffffffffffff16036110385760006040517f01a8351400000000000000000000000000000000000000000000000000000000815260040161102f9190612595565b60405180910390fd5b61104585858585856114e8565b5050505050565b600060208202602084010151905092915050565b600060208202602084010151905092915050565b61107c610f4c565b73ffffffffffffffffffffffffffffffffffffffff1661109a6109fb565b73ffffffffffffffffffffffffffffffffffffffff16146110f9576110bd610f4c565b6040517f118cdaa70000000000000000000000000000000000000000000000000000000081526004016110f09190612595565b60405180910390fd5b565b806002908161110a9190612d62565b5050565b6000600360009054906101000a900473ffffffffffffffffffffffffffffffffffffffff16905081600360006101000a81548173ffffffffffffffffffffffffffffffffffffffff021916908373ffffffffffffffffffffffffffffffffffffffff1602179055508173ffffffffffffffffffffffffffffffffffffffff168173ffffffffffffffffffffffffffffffffffffffff167f8be0079c531659141344cd1fd0a4f28419497f9722a3daafe3b4186f6b6457e060405160405180910390a35050565b600073ffffffffffffffffffffffffffffffffffffffff168273ffffffffffffffffffffffffffffffffffffffff16036112465760006040517fced3e10000000000000000000000000000000000000000000000000000000000815260040161123d9190612595565b60405180910390fd5b80600160008573ffffffffffffffffffffffffffffffffffffffff1673ffffffffffffffffffffffffffffffffffffffff16815260200190815260200160002060008473ffffffffffffffffffffffffffffffffffffffff1673ffffffffffffffffffffffffffffffffffffffff16815260200190815260200160002060006101000a81548160ff0219169083151502179055508173ffffffffffffffffffffffffffffffffffffffff168373ffffffffffffffffffffffffffffffffffffffff167f17307eab39ab6107e8899845ad3d59bd9653f200f220920489ca2b5937696c31836040516113379190611e92565b60405180910390a3505050565b600073ffffffffffffffffffffffffffffffffffffffff168473ffffffffffffffffffffffffffffffffffffffff16036113b65760006040517f57f447ce0000000000000000000000000000000000000000000000000000000081526004016113ad9190612595565b60405180910390fd5b6000806113c3858561159a565b915091506113d56000878484876114e8565b505050505050565b600073ffffffffffffffffffffffffffffffffffffffff168473ffffffffffffffffffffffffffffffffffffffff160361144f5760006040517f57f447ce0000000000000000000000000000000000000000000000000000000081526004016114469190612595565b60405180910390fd5b600073ffffffffffffffffffffffffffffffffffffffff168573ffffffffffffffffffffffffffffffffffffffff16036114c15760006040517f01a835140000000000000000000000000000000000000000000000000000000081526004016114b89190612595565b60405180910390fd5b6000806114ce858561159a565b915091506114df87878484876114e8565b50505050505050565b6114f4858585856115ca565b600073ffffffffffffffffffffffffffffffffffffffff168473ffffffffffffffffffffffffffffffffffffffff1614611593576000611532610f4c565b9050600184510361158257600061155360008661106090919063ffffffff16565b9050600061156b60008661106090919063ffffffff16565b905061157b838989858589611978565b5050611591565b611590818787878787611b2c565b5b505b5050505050565b60608060405191506001825283602083015260408201905060018152826020820152604081016040529250929050565b805182511461161457815181516040517f5b05999100000000000000000000000000000000000000000000000000000000815260040161160b9291906127e9565b60405180910390fd5b600061161e610f4c565b905060005b8351811015611833576000611641828661106090919063ffffffff16565b90506000611658838661106090919063ffffffff16565b9050600073ffffffffffffffffffffffffffffffffffffffff168873ffffffffffffffffffffffffffffffffffffffff161461178557600080600084815260200190815260200160002060008a73ffffffffffffffffffffffffffffffffffffffff1673ffffffffffffffffffffffffffffffffffffffff1681526020019081526020016000205490508181101561172d57888183856040517f03dee4c50000000000000000000000000000000000000000000000000000000081526004016117249493929190612e34565b60405180910390fd5b81810360008085815260200190815260200160002060008b73ffffffffffffffffffffffffffffffffffffffff1673ffffffffffffffffffffffffffffffffffffffff16815260200190815260200160002081905550505b600073ffffffffffffffffffffffffffffffffffffffff168773ffffffffffffffffffffffffffffffffffffffff1614611820578060008084815260200190815260200160002060008973ffffffffffffffffffffffffffffffffffffffff1673ffffffffffffffffffffffffffffffffffffffff16815260200190815260200160002060008282546118189190612a68565b925050819055505b50508061182c90612870565b9050611623565b5060018351036118f257600061185360008561106090919063ffffffff16565b9050600061186b60008561106090919063ffffffff16565b90508573ffffffffffffffffffffffffffffffffffffffff168773ffffffffffffffffffffffffffffffffffffffff168473ffffffffffffffffffffffffffffffffffffffff167fc3d58168c5ae7397731d063d5bbf3d657854427343f4c083240f7aacaa2d0f6285856040516118e39291906127e9565b60405180910390a45050611971565b8373ffffffffffffffffffffffffffffffffffffffff168573ffffffffffffffffffffffffffffffffffffffff168273ffffffffffffffffffffffffffffffffffffffff167f4a39dc06d4c0dbc64b70af90fd698a233a518aa5d07e595d983b8c0526c8f7fb8686604051611968929190612e79565b60405180910390a45b5050505050565b60008473ffffffffffffffffffffffffffffffffffffffff163b1115611b24578373ffffffffffffffffffffffffffffffffffffffff1663f23a6e6187878686866040518663ffffffff1660e01b81526004016119d9959493929190612f05565b6020604051808303816000875af1925050508015611a1557506040513d601f19601f82011682018060405250810190611a129190612f74565b60015b611a99573d8060008114611a45576040519150601f19603f3d011682016040523d82523d6000602084013e611a4a565b606091505b506000815103611a9157846040517f57f447ce000000000000000000000000000000000000000000000000000000008152600401611a889190612595565b60405180910390fd5b805160208201fd5b63f23a6e6160e01b7bffffffffffffffffffffffffffffffffffffffffffffffffffffffff1916817bffffffffffffffffffffffffffffffffffffffffffffffffffffffff191614611b2257846040517f57f447ce000000000000000000000000000000000000000000000000000000008152600401611b199190612595565b60405180910390fd5b505b505050505050565b60008473ffffffffffffffffffffffffffffffffffffffff163b1115611cd8578373ffffffffffffffffffffffffffffffffffffffff1663bc197c8187878686866040518663ffffffff1660e01b8152600401611b8d959493929190612fa1565b6020604051808303816000875af1925050508015611bc957506040513d601f19601f82011682018060405250810190611bc69190612f74565b60015b611c4d573d8060008114611bf9576040519150601f19603f3d011682016040523d82523d6000602084013e611bfe565b606091505b506000815103611c4557846040517f57f447ce000000000000000000000000000000000000000000000000000000008152600401611c3c9190612595565b60405180910390fd5b805160208201fd5b63bc197c8160e01b7bffffffffffffffffffffffffffffffffffffffffffffffffffffffff1916817bffffffffffffffffffffffffffffffffffffffffffffffffffffffff191614611cd657846040517f57f447ce000000000000000000000000000000000000000000000000000000008152600401611ccd9190612595565b60405180910390fd5b505b505050505050565b6000604051905090565b600080fd5b600080fd5b600073ffffffffffffffffffffffffffffffffffffffff82169050919050565b6000611d1f82611cf4565b9050919050565b611d2f81611d14565b8114611d3a57600080fd5b50565b600081359050611d4c81611d26565b92915050565b6000819050919050565b611d6581611d52565b8114611d7057600080fd5b50565b600081359050611d8281611d5c565b92915050565b60008060408385031215611d9f57611d9e611cea565b5b6000611dad85828601611d3d565b9250506020611dbe85828601611d73565b9150509250929050565b611dd181611d52565b82525050565b6000602082019050611dec6000830184611dc8565b92915050565b60007fffffffff0000000000000000000000000000000000000000000000000000000082169050919050565b611e2781611df2565b8114611e3257600080fd5b50565b600081359050611e4481611e1e565b92915050565b600060208284031215611e6057611e5f611cea565b5b6000611e6e84828501611e35565b91505092915050565b60008115159050919050565b611e8c81611e77565b82525050565b6000602082019050611ea76000830184611e83565b92915050565b600060208284031215611ec357611ec2611cea565b5b6000611ed184828501611d73565b91505092915050565b600081519050919050565b600082825260208201905092915050565b60005b83811015611f14578082015181840152602081019050611ef9565b60008484015250505050565b6000601f19601f8301169050919050565b6000611f3c82611eda565b611f468185611ee5565b9350611f56818560208601611ef6565b611f5f81611f20565b840191505092915050565b60006020820190508181036000830152611f848184611f31565b905092915050565b600080fd5b7f4e487b7100000000000000000000000000000000000000000000000000000000600052604160045260246000fd5b611fc982611f20565b810181811067ffffffffffffffff82111715611fe857611fe7611f91565b5b80604052505050565b6000611ffb611ce0565b90506120078282611fc0565b919050565b600067ffffffffffffffff82111561202757612026611f91565b5b602082029050602081019050919050565b600080fd5b600061205061204b8461200c565b611ff1565b9050808382526020820190506020840283018581111561207357612072612038565b5b835b8181101561209c57806120888882611d73565b845260208401935050602081019050612075565b5050509392505050565b600082601f8301126120bb576120ba611f8c565b5b81356120cb84826020860161203d565b91505092915050565b600080fd5b600067ffffffffffffffff8211156120f4576120f3611f91565b5b6120fd82611f20565b9050602081019050919050565b82818337600083830152505050565b600061212c612127846120d9565b611ff1565b905082815260208101848484011115612148576121476120d4565b5b61215384828561210a565b509392505050565b600082601f8301126121705761216f611f8c565b5b8135612180848260208601612119565b91505092915050565b600080600080600060a086880312156121a5576121a4611cea565b5b60006121b388828901611d3d565b95505060206121c488828901611d3d565b945050604086013567ffffffffffffffff8111156121e5576121e4611cef565b5b6121f1888289016120a6565b935050606086013567ffffffffffffffff81111561221257612211611cef565b5b61221e888289016120a6565b925050608086013567ffffffffffffffff81111561223f5761223e611cef565b5b61224b8882890161215b565b9150509295509295909350565b600067ffffffffffffffff82111561227357612272611f91565b5b602082029050602081019050919050565b600061229761229284612258565b611ff1565b905080838252602082019050602084028301858111156122ba576122b9612038565b5b835b818110156122e357806122cf8882611d3d565b8452602084019350506020810190506122bc565b5050509392505050565b600082601f83011261230257612301611f8c565b5b8135612312848260208601612284565b91505092915050565b6000806040838503121561233257612331611cea565b5b600083013567ffffffffffffffff8111156123505761234f611cef565b5b61235c858286016122ed565b925050602083013567ffffffffffffffff81111561237d5761237c611cef565b5b612389858286016120a6565b9150509250929050565b600081519050919050565b600082825260208201905092915050565b6000819050602082019050919050565b6123c881611d52565b82525050565b60006123da83836123bf565b60208301905092915050565b6000602082019050919050565b60006123fe82612393565b612408818561239e565b9350612413836123af565b8060005b8381101561244457815161242b88826123ce565b9750612436836123e6565b925050600181019050612417565b5085935050505092915050565b6000602082019050818103600083015261246b81846123f3565b905092915050565b600061247e82611cf4565b9050919050565b61248e81612473565b811461249957600080fd5b50565b6000813590506124ab81612485565b92915050565b6000602082840312156124c7576124c6611cea565b5b60006124d58482850161249c565b91505092915050565b600080fd5b60008083601f8401126124f9576124f8611f8c565b5b8235905067ffffffffffffffff811115612516576125156124de565b5b60208301915083600182028301111561253257612531612038565b5b9250929050565b600080602083850312156125505761254f611cea565b5b600083013567ffffffffffffffff81111561256e5761256d611cef565b5b61257a858286016124e3565b92509250509250929050565b61258f81611d14565b82525050565b60006020820190506125aa6000830184612586565b92915050565b6125b981611e77565b81146125c457600080fd5b50565b6000813590506125d6816125b0565b92915050565b600080604083850312156125f3576125f2611cea565b5b600061260185828601611d3d565b9250506020612612858286016125c7565b9150509250929050565b6000806040838503121561263357612632611cea565b5b600061264185828601611d73565b925050602061265285828601611d73565b9150509250929050565b6000806040838503121561267357612672611cea565b5b600061268185828601611d3d565b925050602061269285828601611d3d565b9150509250929050565b600080600080600060a086880312156126b8576126b7611cea565b5b60006126c688828901611d3d565b95505060206126d788828901611d3d565b94505060406126e888828901611d73565b93505060606126f988828901611d73565b925050608086013567ffffffffffffffff81111561271a57612719611cef565b5b6127268882890161215b565b9150509295509295909350565b60006020828403121561274957612748611cea565b5b600061275784828501611d3d565b91505092915050565b7f4e487b7100000000000000000000000000000000000000000000000000000000600052602260045260246000fd5b600060028204905060018216806127a757607f821691505b6020821081036127ba576127b9612760565b5b50919050565b60006040820190506127d56000830185612586565b6127e26020830184612586565b9392505050565b60006040820190506127fe6000830185611dc8565b61280b6020830184611dc8565b9392505050565b7f4e487b7100000000000000000000000000000000000000000000000000000000600052603260045260246000fd5b7f4e487b7100000000000000000000000000000000000000000000000000000000600052601160045260246000fd5b600061287b82611d52565b91507fffffffffffffffffffffffffffffffffffffffffffffffffffffffffffffffff82036128ad576128ac612841565b5b600182019050919050565b7f5a65726f20616464726573730000000000000000000000000000000000000000600082015250565b60006128ee600c83611ee5565b91506128f9826128b8565b602082019050919050565b6000602082019050818103600083015261291d816128e1565b9050919050565b7f496e76616c696420696400000000000000000000000000000000000000000000600082015250565b600061295a600a83611ee5565b915061296582612924565b602082019050919050565b600060208201905081810360008301526129898161294d565b9050919050565b7f416d6f756e74206973207a65726f000000000000000000000000000000000000600082015250565b60006129c6600e83611ee5565b91506129d182612990565b602082019050919050565b600060208201905081810360008301526129f5816129b9565b9050919050565b7f4d697373696e672070726576696f757320726172697479000000000000000000600082015250565b6000612a32601783611ee5565b9150612a3d826129fc565b602082019050919050565b60006020820190508181036000830152612a6181612a25565b9050919050565b6000612a7382611d52565b9150612a7e83611d52565b9250828201905080821115612a9657612a95612841565b5b92915050565b7f4e6f7420656e6f75676820737570706c79000000000000000000000000000000600082015250565b6000612ad2601183611ee5565b9150612add82612a9c565b602082019050919050565b60006020820190508181036000830152612b0181612ac5565b9050919050565b6000612b1382611d52565b9150612b1e83611d52565b9250828202612b2c81611d52565b91508282048414831517612b4357612b42612841565b5b5092915050565b7f496e636f7272656374207061796d656e74000000000000000000000000000000600082015250565b6000612b80601183611ee5565b9150612b8b82612b4a565b602082019050919050565b60006020820190508181036000830152612baf81612b73565b9050919050565b60008190508160005260206000209050919050565b60006020601f8301049050919050565b600082821b905092915050565b600060088302612c187fffffffffffffffffffffffffffffffffffffffffffffffffffffffffffffffff82612bdb565b612c228683612bdb565b95508019841693508086168417925050509392505050565b6000819050919050565b6000612c5f612c5a612c5584611d52565b612c3a565b611d52565b9050919050565b6000819050919050565b612c7983612c44565b612c8d612c8582612c66565b848454612be8565b825550505050565b600090565b612ca2612c95565b612cad818484612c70565b505050565b5b81811015612cd157612cc6600082612c9a565b600181019050612cb3565b5050565b601f821115612d1657612ce781612bb6565b612cf084612bcb565b81016020851015612cff578190505b612d13612d0b85612bcb565b830182612cb2565b50505b505050565b600082821c905092915050565b6000612d3960001984600802612d1b565b1980831691505092915050565b6000612d528383612d28565b9150826002028217905092915050565b612d6b82611eda565b67ffffffffffffffff811115612d8457612d83611f91565b5b612d8e825461278f565b612d99828285612cd5565b600060209050601f831160018114612dcc5760008415612dba578287015190505b612dc48582612d46565b865550612e2c565b601f198416612dda86612bb6565b60005b82811015612e0257848901518255600182019150602085019450602081019050612ddd565b86831015612e1f5784890151612e1b601f891682612d28565b8355505b6001600288020188555050505b505050505050565b6000608082019050612e496000830187612586565b612e566020830186611dc8565b612e636040830185611dc8565b612e706060830184611dc8565b95945050505050565b60006040820190508181036000830152612e9381856123f3565b90508181036020830152612ea781846123f3565b90509392505050565b600081519050919050565b600082825260208201905092915050565b6000612ed782612eb0565b612ee18185612ebb565b9350612ef1818560208601611ef6565b612efa81611f20565b840191505092915050565b600060a082019050612f1a6000830188612586565b612f276020830187612586565b612f346040830186611dc8565b612f416060830185611dc8565b8181036080830152612f538184612ecc565b90509695505050505050565b600081519050612f6e81611e1e565b92915050565b600060208284031215612f8a57612f89611cea565b5b6000612f9884828501612f5f565b91505092915050565b600060a082019050612fb66000830188612586565b612fc36020830187612586565b8181036040830152612fd581866123f3565b90508181036060830152612fe981856123f3565b90508181036080830152612ffd8184612ecc565b9050969550505050505056fea2646970667358221220c62d6649e4b561b792f40eca6f1cc24461a45e491a69d094cb9260289a12d62064736f6c63430008140033",
  "linkReferences": {},
  "deployedLinkReferences": {}
}